{
    "contractName": "Ballot",
    "abi": [
        {
            "constant": false,
            "inputs": [
                {
                    "internalType": "address",
                    "name": "candidate",
                    "type": "address"
                }
            ],
            "name": "vote",
            "outputs": [
                {
                    "internalType": "uint8",
                    "name": "",
                    "type": "uint8"
                }
            ],
            "payable": false,
            "stateMutability": "nonpayable",
            "type": "function"
        },
        {
            "constant": true,
            "inputs": [
                {
                    "internalType": "address",
                    "name": "addr",
                    "type": "address"
                }
            ],
            "name": "isCandidate",
            "outputs": [
                {
                    "internalType": "bool",
                    "name": "",
                    "type": "bool"
                }
            ],
            "payable": false,
            "stateMutability": "view",
            "type": "function"
        }
    ],
    "bytecode": "608060405234801561001057600080fd5b50610109806100206000396000f3fe6080604052348015600f57600080fd5b506004361060325760003560e01c80636dd7d8ea146037578063d51b9e93146070575b600080fd5b605a60048036036020811015604b57600080fd5b50356001600160a01b031660a7565b6040805160ff9092168252519081900360200190f35b609360048036036020811015608457600080fd5b50356001600160a01b031660b6565b604080519115158252519081900360200190f35b50336000908152602081905290565b6001600160a01b031660009081526001602052604090205460ff169056fea265627a7a723158206a843c85e8619ca5beee200a35c05caec82aa4d7654830d439678d720fc5c8b864736f6c634300050b0032",
    "sourcePath": "c:/Users/renardbebe/Desktop/SCStudio-Meng/ballot.sol",
    "compiler": {
        "name": "solc",
        "version": "0.5.11+commit.c082d0b4"
    },
    "functionHashes": {
        "isCandidate(address)": "d51b9e93",
        "vote(address)": "6dd7d8ea"
    },
    "gasEstimates": {
        "creation": {
            "codeDepositCost": "53000",
            "executionCost": "105",
            "totalCost": "53105"
        },
        "external": {
            "isCandidate(address)": "554",
            "vote(address)": "270"
        }
    }
}